S01900004558414D504C455F4652454552544F53312E7372656305
S21440000088D70020C5534000355340003553400044
S2144000103553400035534000355340000000000043
S2144000200000000000000000000000007158400082
S214400030355340000000000071594000B959400057
S214400040355340003553400035534000355340004B
S214400050355340003553400035534000355340003B
S2144000603553400049284000612840007928400028
S21440007091284000A92840003553400035534000A1
S214400080355340003553400035534000355340000B
S21440009035534000355340003553400035534000FB
S2144000A035534000355340003553400035534000EB
S2144000B035534000355340003553400035534000DB
S2144000C0355340003553400035534000D53240004C
S2144000D035534000355340003553400035534000BB
S2144000E035534000355340003553400035534000AB
S2144000F0355340003553400010B5054C237833B98E
S214400100044B13B10448AFF300800123237010BDA5
S214400110FC040020000000000C7240000C4B43B171
S2144001200C480D4910B5AFF300800C48036823B95E
S21440013010BD0A48036833B97047094B002BF7D007
S214400140BDE810401847064B002BF5D0184700BFB7
S214400150000000000C724000000500200C724000B9
S2144001600000000080B48BB000AF78600B46FB7098
S2144001707B687B62FB7887F823307B6AFB61FB6990
S214400180BB61BB695B097B617B6903F5001303F2C6
S21440019007735B023B6197F82330002B09D07B6ADC
S2144001A0FB60FB6803F01F0301229A403B691A6319
S2144001B008E07B6ABB60BB6803F01F0301229A40DD
S2144001C03B695A6300BF2C37BD465DF8047B7047D9
S2144001D080B500AF00217620014B984700BF80BD18
S2144001E06501400080B500AF01217620014B98475D
S2144001F000BF80BD6501400080B500AF002176207D
S214400200014B984700BF80BD6501400080B582B075
S21440021000AF0346FB80FB88002B03D100217620ED
S214400220064B9847FB88B3F57A7F03D101217620A9
S214400230024B984700BF0837BD4680BD6501400069
S21440024080B400AF054B1B78002B01D0022300E0A2
S21440025000231846BD465DF8047B704718650020AD
S21440026080B483B000AF7860074B1B78002B01D07A
S214400270022303E07B682F221A60002318460C37BF
S214400280BD465DF8047B70471865002080B400AF1B
S21440029000231846BD465DF8047B704780B400AF27
S2144002A001231846BD465DF8047B704780B483B092
S2144002B000AF0346FB71054AFB79137001231846CD
S2144002C00C37BD465DF8047B704700BF18650020BC
S2144002D090B585B000AF78600B467B8013467B7048
S2144002E07B68302B04D87A887B681344302B25D91A
S2144002F0012327E07B887F2B02D87B88DBB200E097
S2144003008023FB737B685A1C7A605B020F4A134457
S214400310BB60FB7B5B021A4678780023B9680C4CBE
S214400320A047034683F00103DBB2002B01D0012334
S21440033008E0FB7B9BB27A88D31A7B807B88002BB5
S214400340D8D1002318461437BD4690BD1805002066
S2144003501117400080B582B000AF78600B467B80B6
S2144003607B88012219467868034B9847034618460F
S2144003700837BD4680BD00BFD102400080B582B080
S21440038000AF78600B467B807B88002219467868F1
S214400390034B9847034618460837BD4680BD00BF06
S2144003A0D102400080B582B000AF78607B68072BF2
S2144003B031D801A252F823F015044000D90340007A
S2144003C0E1034000E9034000F1034000F903400028
S2144003D0010440000B0440000020114B98471AE0EF
S2144003E001200F4B984716E000200E4B984712E02E
S2144003F010200C4B98470EE020200A4B98470AE006
S2144004003E210020084B984705E03E210120064B40
S214400410984700E000BF00BF0837BD4680BD00BF1C
S21440042045294000B1294000212A400080B582B0CD
S21440043000AF78607B68072B26D801A252F823F0DD
S21440044061044000650440006504400077044000B5
S214400450770440007704400077044000770440006B
S214400460012312E00B4B98470346002B14BF012391
S2144004700023DBB209E0084B98470346002B14BF25
S21440048001230023DBB200E0002318460837BD46B0
S21440049080BD00BF7D294000992A400080B483B0CB
S2144004A000AF78607B68072B25D801A252F823F06E
S2144004B0D1044000D7044000DD044000E30440007F
S2144004C0E7044000EB044000EF044000F304400023
S2144004D04FF4FA4310E04FF400430DE04FF400436E
S2144004E00AE0084B08E0084B06E0084B04E0074BE0
S2144004F002E0064B00E0002318460C37BD465DF888
S214400500047B704700093D0000127A00001BB700CC
S21440051080B582B000AF0346FB7100BFFB7918463A
S214400520054B9847034683F00103DBB2002BF5D119
S21440053000BF0837BD4680BD2D04400080B586B05C
S21440054000AFF8607A603B600B46FB72FB7A184659
S2144005500D4B984702467B68B2FBF3F37B617B69A1
S2144005603A6802FB03F37B613B68013B1A04074B86
S21440057013407A68D2B2134343F47C52FB681A6045
S21440058000BF1837BD4680BD9D0440000000FF07F1
S21440059080B582B000AF786039603B68002B07D1E9
S2144005A0054B9847054A7B681B6843F000539362A7
S2144005B000BF0837BD4680BDB52A400000040E4047
S2144005C080B582B000AF7860034B98470346184624
S2144005D00837BD4680BD00BFD12A400080B582B0F6
S2144005E000AF0346FB71FB79033B042B08D8FB792D
S2144005F01846064B9847FB791846054B984700E047
S21440060000BF00BF0837BD4680BD00BFA503400001
S2144006101105400080B582B000AF786000BF7868B2
S214400620044B98470346002BF9D00023184608375A
S214400630BD4680BDC105400080B500AF0620034BD7
S214400640984703461B01184680BD00BF9D044000E6
S21440065080B500AF024B984703465B08184680BDFE
S2144006603906400090B583B000AF06200C4B984743
S214400670381D1023012206210A4CA0473B1D0021AD
S2144006801846094B98470020084B98470320084BCC
S2144006909847084B984700BF0C37BD4690BD00BFF3
S2144006A0DD0540003D054000910540001506400030
S2144006B0F52B4000192C400090B583B000AF114890
S2144006C0114B98470620114B9847381D102301229E
S2144006D006210F4CA0473B1D002118460D4B98475E
S2144006E000200D4B984710200C4B98470C4B9847D2
S2144006F00C4B984703461846034B984700BF0C37A9
S214400700BD4690BD000E2707DD554000DD05400084
S2144007103D0540009105400015064000C1284000B8
S214400720755440005106400098B500AF0F4B1B680B
S214400730002B18D10322002101200D4B984702467A
S2144007400A4B1A60094B1B68002B06D0074B1868EB
S214400750002300220021074CA047044B1B68002BB7
S21440076001D1002300E00123184698BD1C650020F7
S214400770A15B4000455C400080B500AF094B1B685C
S214400780002B01D100230BE000BF064B1B684FF047
S214400790FF311846044B98470346002BF5D00123FB
S2144007A0184680BD1C650020715E400080B400AFD6
S2144007B001231846BD465DF8047B704790B585B06A
S2144007C000AF0346FB71114B9847034683F0010385
S2144007D0DBB2002B01D0012314E0FB79002B07D1BC
S2144007E0FB790B4A5B0113441B689847034600E0BD
S2144007F00123FB73074B1868002300220021064C98
S214400800A047FB7B18461437BD4690BD790740008D
S2144008109C7140001C650020455C400090B585B04A
S21440082000AF03463960FB71124B9847034683F08E
S2144008300103DBB2002B01D0012316E0FB79002B2D
S21440084009D1FB790C4A5B01134404331B683868B2
S2144008509847034600E00123FB73084B18680023C3
S21440086000220021064CA047FB7B18461437BD46A5
S21440087090BD00BF790740009C7140001C65002079
S214400880455C400090B585B000AF03460A46FB7114
S2144008901346BB711F4B9847034683F00103DBB2F8
S2144008A0002B01D0002331E0FB79002B24D1FB79CB
S2144008B0194A5B01134408331B68002B0FD0FB79A1
S2144008C0154A5B01134408331B68BA7910469847AB
S2144008D00346002B14BF01230023DBB20DE0BB7997
S2144008E0002B14BF01230023DBB283F00103DBB2ED
S2144008F003F00103DBB200E00023FB73074B1868EC
S214400900002300220021064CA047FB7B18461437E4
S214400910BD4690BD790740009C7140001C65002094
S214400920455C400090B585B000AF0346FB71134B65
S2144009309847034683F00103DBB2002B01D0012326
S21440094018E0FB79002B09D1FB790D4A5B01134473
S2144009500C331B6898470346002B01D0012300E068
S2144009600023FB73074B1868002300220021064C27
S214400970A047FB7B18461437BD4690BD790740001C
S2144009809C7140001C650020455C400090B585B0D9
S21440099000AF0346FB71134B9847034683F00103B1
S2144009A0DBB2002B01D0012318E0FB79002B09D1E4
S2144009B0FB790D4A5B01134410331B689847034686
S2144009C0002B01D0012300E00023FB73074B18687F
S2144009D0002300220021064CA047FB7B1846143714
S2144009E0BD4690BD790740009C7140001C650020C4
S2144009F0455C400080B483B000AF0346FB71FB7992
S214400A00002B01D1044B00E0002318460C37BD46AE
S214400A105DF8047B704700BF8071400080B582B0AF
S214400A2000AF1F4B00221A701E4B00221A701E4B3E
S214400A3001221A701D4B01221A701D4B984703461F
S214400A401A461C4B1A701B4B1B78002B01D10023F7
S214400A5022E0184B1B78013BDAB2164B1A70164B45
S214400A609847034683F00103DBB2002B01D00023F6
S214400A7012E00023FB7107E0FB79002118460F4B7C
S214400A809847FB790133FB710A4B1B78FA799A42F7
S214400A90F2D90B4B9847012318460837BD4680BD10
S214400AA057650020566500202100002022000020C7
S214400AB0AD07400040650020FD6D400085084000C1
S214400AC0350C400080B500AF064B00221A70064B2E
S214400AD001221A70054B01221A70054B984700BF39
S214400AE080BD00BF57650020210000202200002066
S214400AF0196E400080B500AF284B1B785BB2002BC8
S214400B001DDA264B1B7803F06003202B17D1234BAE
S214400B105B78FE2B13D1214BDB88012B01D00023C1
S214400B2039E01E4B5B88002B01D0002333E01B4B83
S214400B301B4A9A60194B01229A8101232BE0174BDE
S214400B401B785BB2002B25DB144B1B7803F060034D
S214400B50202B1FD1114B5B78FF2B1BD10F4BDB8813
S214400B60002B01D0002316E00C4B5B88002B01D0F5
S214400B70002310E00B4B00221A700B4B00221A7019
S214400B8002200A4B98478120084B9847084B9847C5
S214400B90012300E00023184680BD00BF48A7002080
S214400BA0406500205665002057650020D53C400033
S214400BB0350C400080B400AF00231846BD465DF8B3
S214400BC0047B704780B500AF084B1B7883F0010369
S214400BD0DBB2002B07D10220054B9847054902207F
S214400BE0054B984700E000BF80BD00BF566500201B
S214400BF05D394000C50B4000F13E400080B500AF77
S214400C00084B1B7883F00103DBB2002B07D1812011
S214400C10054B984705498120054B984700E000BFA3
S214400C2080BD00BF566500205D394000FD0B40008A
S214400C30F13E400090B583B002AF0B4B00931F23AC
S214400C400A4A012102200A4CA047034683F00103CA
S214400C50DBB2002B03D007490220074B984700BF62
S214400C600437BD4690BD00BF7D0C40002065002087
S214400C707D3B4000350C4000F13E400080B582B0E0
S214400C8000AF03463960FB711346BB71FB79002BFE
S214400C9040F011813B681F2B04D1894B1B68894A61
S214400CA0934207D0884B01221A70884B9847884B4E
S214400CB0984701E1824B5B7B03F00F03DAB2804B2F
S214400CC05A737F4B5A7B834B1B789A4204D9824B8C
S214400CD09847824B9847EFE0794B9B68804A9360F1
S214400CE0774BDB7B5A2B00F2E08001A252F823F0D0
S214400CF0790E4000AB0E4000AB0E40005D0E40004B
S214400D00AB0E4000AB0E4000AB0E4000AB0E4000BA
S214400D10AB0E4000AB0E4000AB0E4000AB0E4000AA
S214400D20AB0E4000AB0E4000AB0E4000AB0E40009A
S214400D30AB0E4000AB0E4000630E4000AB0E4000D2
S214400D40AB0E4000AB0E4000AB0E4000AB0E40007A
S214400D50AB0E4000AB0E4000690E4000850E4000D2
S214400D60AB0E4000AB0E40008B0E4000AB0E40007A
S214400D70AB0E4000AB0E4000AB0E4000AB0E40004A
S214400D80AB0E40007F0E4000AB0E4000AB0E400066
S214400D909B0E4000AB0E4000A30E4000AB0E400042
S214400DA0AB0E4000AB0E4000AB0E4000910E400034
S214400DB0AB0E4000AB0E4000AB0E4000AB0E40000A
S214400DC0AB0E4000AB0E4000AB0E4000AB0E4000FA
S214400DD0AB0E4000AB0E4000AB0E4000AB0E4000EA
S214400DE0AB0E4000AB0E4000AB0E4000AB0E4000DA
S214400DF0AB0E4000AB0E4000AB0E4000AB0E4000CA
S214400E00AB0E4000AB0E4000AB0E4000AB0E4000B9
S214400E10AB0E4000AB0E4000AB0E4000AB0E4000A9
S214400E20AB0E4000AB0E4000AB0E4000AB0E400099
S214400E30AB0E4000AB0E4000AB0E4000AB0E400089
S214400E40AB0E4000AB0E4000AB0E4000AB0E400079
S214400E50AB0E4000AB0E4000710E4000214B984751
S214400E602AE0214B984727E00020204B984723E074
S214400E7001201E4B98471FE01D4B98471CE01D4B1A
S214400E80984719E01C4B984716E01C4B984713E0D0
S214400E901B4B9847114B98470EE00120194B98473B
S214400EA00AE00020174B984706E0174B98470B4B35
S214400EB0984700BF00E000BF0837BD4680BD00BF72
S214400EC0206500205553424356650020C50B400020
S214400ED0FD0B400040650020AD114000E50F40008E
S214400EE014000020DD1140002D1240009D134000EC
S214400EF07513400061154000ED144000B5144000E5
S214400F0031114000F9154000C511400080B582B04F
S214400F1000AF78600B46FB700B4B1A7BFB78534058
S214400F20DBB25BB2002B04DB084B9A687B689A42C4
S214400F3005D2074B9847074B9847002300E001230C
S214400F4018460837BD4680BD2065002014000020A6
S214400F50AD114000E50F400090B585B002AF786017
S214400F600B46FB70FA780B4B009313467A680121C8
S214400F708120094CA047034683F00103DBB2002BD7
S214400F8003D0064B9847064B984700BF0C37BD46E4
S214400F9090BD00BFA50F40007D3B40007D11400046
S214400FA0E50F400080B582B000AF03463960FB7164
S214400FB01346BB71FB79002B0AD1074B9847074B6A
S214400FC09A683B68D31A054A9360054B984700E0F9
S214400FD000BF0837BD4680BD3111400014000020D8
S214400FE0E50F400080B500AF0D4B9B68002B0BD043
S214400FF00C4B1B7B5BB2002B03DA81200A4B9847D5
S21440100002E00220084B9847064B5B68044A536050
S214401010034B9B68024A9360044B984700BF80BDD1
S21440102014000020206500205D394000311040004B
S21440103090B583B002AF0B4B00930D230A4A0021B4
S21440104081200A4CA047034683F00103DBB2002B05
S21440105003D007498120074B984700BF0437BD4659
S21440106090BD00BF79104000140000207D3B40003A
S21440107031104000F13E400080B582B000AF0346DC
S2144010803960FB711346BB71024B984700BF083767
S214401090BD4680BD350C400080B500AF1222002111
S2144010A00548064B9847044BF0221A70024B0A221A
S2144010B0DA7100BF80BD00BF44650020C56F4000A8
S2144010C080B582B000AF03463A60FB710B46BB80EA
S2144010D0144B9847144B01221A73144AFB799370A9
S2144010E03B681B0EDAB2114BDA703B681B0CDAB267
S2144010F00E4B1A713B681B0ADAB20C4B5A713B68AE
S214401100DAB20A4B9A71BB881B0A9BB2DAB2074B1B
S2144011101A73BB88DAB2054B5A7300BF0837BD4610
S21440112080BD00BF99104000140000204465002098
S21440113080B500AF034B9847034B00221A7300BF9D
S21440114080BD00BF991040001400002080B500AF5D
S21440115000224FF468510220014B984700BF80BDE3
S214401160C110400080B500AF00224FF42051062049
S214401170014B984700BF80BDC110400080B500AF0E
S214401180002200210420024B984700BF80BD00BFCC
S214401190C110400080B500AF00224FF41C5107201C
S2144011A0014B984700BF80BDC110400080B500AFDE
S2144011B000224FF410510520014B984700BF80BDD8
S2144011C0C110400080B500AF00224FF4005105200A
S2144011D0014B984700BF80BDC110400080B582B02B
S2144011E000AF0E4BDB7CFB71FB79122B01D912232F
S2144011F0FB71FB7980211846094B9847034683F0DC
S2144012000103DBB2002B05D1FB7919460548064B96
S214401210984700E000BF0837BD4680BD20650020E7
S2144012200D0F400044650020590F400090B583B034
S21440123000AF354BDB7CFB71FB79242B01D9242393
S214401240FB71FB7980211846304B9847034683F064
S2144012500103DBB2002B52D12B4B1B7C03F0030364
S214401260002B03D1284B5B7C002B04D0284B98479F
S214401270284B984744E0244B5B7B1846264B9847C0
S2144012800346002B01D0802200E00022234B5A70F8
S2144012901D4B5B7B1846224B984703465A1C1F4BF8
S2144012A003F110041346186859689A68DB680FC43F
S2144012B00023BB710EE0BB79184A13441B7C002BFD
S2144012C014D0BB79154A13441B7C222B0ED0BB7915
S2144012D00133BB71BB79102BEDD107E0BB790F4AC8
S2144012E0134420221A74BB790133BB71BB79102B8F
S2144012F0F4D1FB79194609480A4B984700E000BFED
S2144013000C37BD4690BD00BF206500200D0F400045
S214401310AD114000E50F40008D094000240000203C
S214401320F5094000590F400080B500AF0C4B5B7B81
S21440133018460C4B98470346022B08D0032B03D085
S214401340002B07D1012309E0074B984705E0074BE0
S214401350984702E0064B984700BF0023184680BDDA
S21440136020650020BD074000651140004D1140003B
S2144013707D11400080B500AF054B98470346002BD3
S21440138001D0044B9847044B984700BF80BD00BF30
S2144013902913400031114000E50F400080B586B06B
S2144013A000AF0346FB71142200213A483A4B984757
S2144013B0FB79002B07D0394BDB7DBB75384B3B6147
S2144013C00823FB7506E0354BDB7CBB75354B3B6134
S2144013D00423FB75314B5B7C03F03F03FB73FB7BC5
S2144013E01C2B02D0FB7B3F2B0BD13B691C221A7077
S2144013F03B690A225A703B690522DA70FB7D0C3342
S214401400FB75BA7DFB7D9A4201D9FB7DBB75BB7DE2
S21440141080211846244B9847034683F00103DBB2ED
S214401420002B32D11D4B5B7B1846204B984703461A
S214401430002B01D0802300E00023BB73FB79002BF8
S21440144015D0FB7D9BB2023B9BB21B0A9BB21AB2E5
S214401450FB7D9BB2023B9BB21B021BB213431BB2EB
S2144014609AB20C4B1A800B4ABB7BD37007E0FB7DCD
S214401470013BDAB2074B1A70064ABB7B9370BB7DC2
S214401480194604480A4B984700E000BF1837BD4647
S21440149080BD00BF64650020C56F40002065002009
S2144014A06C650020686500200D0F4000250940004F
S2144014B0590F400080B582B000AF084BDB7CFB7113
S2144014C0FB79002B02D1064B984701E0054B984725
S2144014D0054B984700BF0837BD4680BD20650020B5
S2144014E031114000AD114000E50F400080B582B09C
S2144014F000AF174BDB7C03F00103002B14BF012326
S2144015000023FB71124BDB7C03F00203002B14BF5D
S21440151001230023BB71BB79002B11D00C4B5A7BA7
S214401520FB79002B14BF01230023DBB283F00103B9
S214401530DBB203F00103DBB219461046054B984771
S214401540054B9847054B984700BF0837BD4680BDBA
S214401550206500208508400031114000E50F40001E
S21440156080B500AF802108201A4B9847034683F089
S2144015700103DBB2002B2BD1174B5B7B1749184678
S214401580174B98470346022B09D0032B02D0002B5B
S2144015900FD009E0134B9847134B984719E0134B6D
S2144015A09847114B984714E0114B98470E4B984775
S2144015B00FE000BF094B4FF400325A60074B1B68E0
S2144015C01BBA064A1360082104480A4B984700E0B5
S2144015D000BF80BD0D0F40002065002078650020CC
S2144015E01D08400065114000E50F40004D114000C9
S2144015F07D114000590F400080B584B000AF0346CF
S214401600FB71FB7983F00103DBB2002B0CD0234B3C
S2144016105B7B1846224B98470346002B04D0214B51
S2144016209847214B984735E0204B1C4A527C1A700D
S2144016301F4B1A4A927C1A701E4B184AD27C1A705C
S2144016401D4B164A127D1A701C4B144A927D1A7016
S2144016501B4B124AD27D1A70194B1B885B02FB60EB
S214401660FB79002B01D0802300E000231946F86860
S214401670144B9847034683F00103DBB2002B08D196
S214401680114AFB791370114B01221A70104B984780
S21440169000E000BF1037BD4680BD00BF206500207B
S2144016A02509400095114000E50F40005F65002089
S2144016B05E6500205D6500205C6500206165002059
S2144016C0606500200D0F40005865002057650020DB
S2144016D0816D400080B483B000AF03463960FB7133
S2144016E01346BB71FB79002B14BF01230023DAB2EB
S2144016F0054B1A70054B01221A7000BF0C37BD46C9
S2144017005DF8047B704700BF42A700202100002000
S21440171090B587B002AFB9607A603B600346FB7312
S2144017202E4B1B78DBB283F00103DBB2002B01D0DB
S21440173000234EE0294B00221A70FB7B002B01D081
S214401740812000E002203B68002B01D03B6800E08F
S214401750234B00937B68BA680021224CA04703467F
S21440176083F00103DBB2002B04D01C4B01221A701D
S21440177000232EE03B68002B24D100BF174B1B787C
S214401780DBB283F00103DBB2002BF7D1164B1B789C
S214401790DBB2002B01D000231BE0144B9A687B6819
S2144017A0D31A124A9360104B1B78DBB2002B14BF3F
S2144017B001230023DBB283F00103DBB203F0010315
S2144017C0DBB206E0094B9A687B68D31A074A9360F7
S2144017D0012318461437BD4690BD00BF21000020A7
S2144017E0D51640007D3B400042A700201400002054
S2144017F080B400AF024B1846BD465DF8047B704788
S214401800BC71400080B400AF064B1B681B68054A9D
S21440181012681268528892B213441846BD465DF864
S214401820047B70478C65002080B584B000AF78603C
S2144018300B46FB70124B9847F8607B681B781A463D
S2144018407B6813447B6010E07B685B78042B11D088
S2144018507B685B78FA789A4201D17B680CE07B68BB
S2144018601B781A467B6813447B60FA687B689A420A
S214401870EAD800E000BF002318461037BD4680BDBA
S2144018800518400080B584B000AF03460A46FB7199
S2144018901346BB711E4B1B78002B01D1002332E050
S2144018A01C4B1B681B681B79FA799A4201D30023AC
S2144018B029E0184B1B681B68174A1360174B98475C
S2144018C0F8601AE0144B1B685B78042B0DD1124B62
S2144018D01B689B78FA799A4207D10F4B1B68DB78D6
S2144018E0BA799A4201D101230DE00B4B1B680A4A94
S2144018F0126812781344084A1360074B1B68FA684C
S2144019009A42DFD8002318461037BD4680BD00BF38
S214401910886500208C6500209065002005184000F2
S21440192080B584B000AF0346FB71FB7900211846B2
S2144019301E4B9847034683F00103DBB2002B01D0D1
S21440194000232FE01A4B1B685A68FB799B00134410
S2144019501B68BB60BB68DB68984703461A46FB7942
S21440196011461846114B9847034683F00103DBB2F5
S214401970002B01D0002315E00E4B1B68FB600521B1
S214401980F8680D4B9847F860FB68002B05D0FB685D
S2144019909B781846094B9847F1E700BFBB685B68E1
S2144019A09847012318461037BD4680BD851840002D
S2144019B08C6500209065002029184000793840004A
S2144019C080B584B000AF03460A46FB711346BB7130
S2144019D0BA79FB79114618461A4B9847034683F066
S2144019E00103DBB2002B01D0002327E0164B1B6817
S2144019F0FB600521F868154B9847F860FB68002B9C
S214401A0011D0FB689878FB68D978FB689B889BB2B6
S214401A101A460F4B9847034683F00103DBB2002B70
S214401A20E7D000230AE000BF0A4B1B685A68FB79E0
S214401A309B0013441B681B6898470346184610379C
S214401A40BD4680BD8518400090650020291840009E
S214401A50893640008C65002080B500AF014B984722
S214401A6000BF80BDB534400080B582B000AF0F4B9C
S214401A701B78002B10D00023FB7106E0FB7918463C
S214401A800B4B9847FB790133FB710A4B1B681B686D
S214401A901B79FA799A42F1D3044B00221A70064B0E
S214401AA001221A8000BF0837BD4680BD88650020E9
S214401AB0211940008C6500208065002080B582B0EA
S214401AC000AF144B1B78002B1FD00023FB7115E092
S214401AD0114B1B685A68FB799B0013441B681B69B3
S214401AE0002B08D00C4B1B685A68FB799B001344AC
S214401AF01B681B699847FB790133FB71064B1B68D3
S214401B001B681B79FA799A42E2D300BF0837BD4674
S214401B1080BD00BF886500208C65002080B500AF82
S214401B20064BDB88022B01D0002304E00221044848
S214401B30044B98470123184680BD00BF48A70020A5
S214401B40806500206136400080B500AF0B4BDB88D7
S214401B50022B01D000230EE0084B9B88DBB21846D0
S214401B60074B984703469AB2064B1A80022105480F
S214401B70054B98470123184680BD00BF48A7002064
S214401B80E9384000946500206136400080B400AFDC
S214401B900C4BDB88002B01D000230DE0094B5B8803
S214401BA0012B08D1084B1B8823F002039AB2064B40
S214401BB01A80012300E000231846BD465DF8047BEA
S214401BC0704700BF48A700208065002080B500AF62
S214401BD00A4BDB88002B01D000230CE0074B5B88C8
S214401BE0002B07D1054B9B88DBB21846044B984721
S214401BF0034600E00023184680BD00BF48A70020EB
S214401C00513A400080B400AF094BDB88002B01D02E
S214401C10002307E0064B5B88012B02D000BF002361
S214401C2000E000231846BD465DF8047B704700BFC1
S214401C3048A7002080B500AF0D4BDB88002B01D0B5
S214401C40002312E00A4B5B88002B0DD1084B9B8883
S214401C50DBB21846074B9847054B9B88DBB21846C5
S214401C60054B9847034600E00023184680BD00BF5A
S214401C7048A70020D53C40005D39400080B500AF05
S214401C80054B5B88DBB203F07F03DBB21846034BA1
S214401C90984700BF80BD00BF48A70020AD35400034
S214401CA080B400AF074BDB88002B01D0002303E055
S214401CB0044B054A1A6101231846BD465DF8047B6D
S214401CC0704700BF48A700207D1C400080B584B008
S214401CD000AF0023FB71294B5B88DBB2032B20D877
S214401CE001A252F823F000BFF91C4000031D40003B
S214401CF00D1D4000171D400004212148214B9847E8
S214401D0011E00923FB71204BBB600CE00323FB7101
S214401D101E4BBB6007E00C23FB711D4B9847B86019
S214401D2001E0002326E0FB79002B22D00023FB7342
S214401D300DE0FB7BFA7BB9680A44127891B2154AEB
S214401D405B0013440A465A80FB7B0133FB73FA7BE5
S214401D50FB799A42EDD3FB790133DBB25B00DAB212
S214401D600C4B1A700B4B1B789BB219460948054B17
S214401D709847012318461037BD4680BD48A7002027
S214401D80940000206136400098000020A400002007
S214401D90F1174000A800002080B582B000AF414B4C
S214401DA05B88FB713F4B5B881B0A9BB2DBB2013BF7
S214401DB00E2B65D801A252F823F000BFF91D400053
S214401DC00F1E40006D1E4000811E4000811E4000D8
S214401DD0811E4000811E4000811E4000811E400042
S214401DE0811E4000811E4000811E4000811E400032
S214401DF0811E40004B1E40002B4B1A682A4B1B6826
S214401E001B789BB219461046284B98473BE0264B1A
S214401E101B685B7CFA799A4201D300233EE0224B52
S214401E205A68FB79DB00134418681F4B5A68FB79E5
S214401E30DB0013441B685B889BB219461B4B9847D4
S214401E40184B9B6802225A701DE0174B9B68002B6C
S214401E5001D1002322E0144B9A68134B9B685B88A1
S214401E609BB219461046114B98470CE0104B9847CA
S214401E70034683F00103DBB2002B03D000230DE0C2
S214401E8000230BE000BF074BDA88064B9B899A423B
S214401E9003D2044BDA88034B9A810123184608374D
S214401EA0BD4680BD48A7002088000020613640001F
S214401EB0CD1C400080B500AF064BDB88012B01D01F
S214401EC0002304E001210448044B984701231846A8
S214401ED080BD00BF48A700208865002061364000CE
S214401EE080B582B000AF274BDB88002B01D00023A3
S214401EF043E0254B98470346002B01D100233CE0A6
S214401F00204B5B88DBB2214A1268527C934201DD4B
S214401F10002332E01E4B98471A4B5B88DAB21D4BC3
S214401F201A701C4B1B78002B01D1012325E0174B60
S214401F305A68184B1B7803F10053013BDB001344EF
S214401F40154A13600023FB710FE0FB790021184609
S214401F50124B9847034683F00103DBB2002B01D0B7
S214401F6000230AE0FB790133FB710B4B1B681B68AF
S214401F701B79FA799A42E8D3012318460837BD46BA
S214401F8080BD00BF48A700201136400088000020D2
S214401F90691A4000886500208C650020C119400001
S214401FA080B582B000AF1E4BDB88012B01D00023EA
S214401FB032E01C4B1B78002B01D100232CE0184B41
S214401FC09B88FB71184B1B681B681B79FA799A42F1
S214401FD001D3002320E0FB7900211846134B984795
S214401FE0034683F00103DBB2002B01D0002313E04D
S214401FF00D4B1B685A68FB799B0013441B683B607B
S2144020003B68DB68984703461A46094B1A7001211D
S2144020100748084B9847012318460837BD4680BDF9
S21440202048A70020886500208C6500208518400061
S214402030846500206136400080B582B000AF144B06
S214402040DB88002B01D000231EE0124B1B78002BB0
S21440205001D1002318E00E4B9B88FB710C4B5B882C
S214402060BB71FB7918460C4B9847034683F0010337
S214402070DBB2002B01D0002306E0BA79FB7911468B
S2144020801846064B9847034618460837BD4680BD57
S21440209048A700208865002021194000C11940004B
S2144020A080B500AF4D4B1B785BB2002B3EDA4B4BF6
S2144020B0DB88002B01D100238EE0484B1B7803F0D1
S2144020C01F03002B14D1454B5B78062B08D0082BFA
S2144020D00AD0002B00D00BE0414B984703467BE0EC
S2144020E0404B9847034677E03F4B9847034673E09C
S2144020F03A4B1B7803F01F03012B08D1374B5B7814
S2144021000A2B00D003E0394B9847034664E0334B34
S2144021101B7803F01F03022B5DD1304B5B78002BFE
S21440212000D058E0324B9847034655E02B4B1B787F
S21440213003F01F03002B2AD1284B5B78013B082B6A
S21440214024D801A252F823F0752140008D2140008A
S2144021507D2140008D2140006D2140008D214000B2
S2144021608D2140008D21400085214000214B98471D
S214402170034631E0204B984703462DE01F4B9847D7
S214402180034629E01E4B9847034625E000BF134B05
S2144021901B7803F01F03012B08D1104B5B780B2BE9
S2144021A000D003E0174B9847034615E00B4B1B78CF
S2144021B003F01F03022B0ED1084B5B78012B02D095
S2144021C0032B04D007E0104B9847034604E00F4B20
S2144021D09847034600E00023184680BD48A70020E5
S2144021E01D1B4000991D4000B51E4000A11F400029
S2144021F0491B4000A11C40008D1B4000051C4000B0
S214402200E11E400039204000CD1B4000351C4000F8
S21440221080B582B000AF204B1B78002B01D1002345
S21440222036E01E4B9B88FB711D4B1B681B681B7959
S214402230FA799A4201D300232AE0FB790021184616
S214402240184B9847034683F00103DBB2002B01D0BE
S21440225000231DE0124B1B685A68FB799B00134411
S2144022601B683B603B68DB68984703461A46FB7929
S214402270114618460B4B9847034683F00103DBB2E2
S214402280002B01D0002303E03B689B689847034639
S21440229018460837BD4680BD8865002048A7002000
S2144022A08C6500208518400080B582B000AF1E4B7C
S2144022B01B78002B01D1002332E01C4B9B88FB711E
S2144022C00023FB7124E01A4B1B685A68FB799B007D
S2144022D013441B683B603B68DB68984703461A46D6
S2144022E0FB7911461846134B9847034683F0010383
S2144022F0DBB2002B01D0002312E03B689B68984776
S2144023000346002B01D001230AE0FB790133FB7121
S214402310074B1B681B681B79FA799A42D3D3002374
S21440232018460837BD4680BD8865002048A700206F
S2144023308C6500208518400080B500AF1E4B0022FB
S2144023409A811D4B00221A611B4B00225A611A4B80
S2144023501B785BB2002B05DA174BDB88002B01D1CC
S214402360002327E0144B1B7803F06003002B06D1B4
S214402370124B98470346002B01D001231AE00E4B20
S2144023801B7803F01F03012B06D10D4B98470346DD
S214402390002B01D001230DE0074B1B7803F01F03F1
S2144023A0022B06D1074B98470346002B01D001234A
S2144023B000E00023184680BD48A70020A12040002A
S2144023C011224000A922400080B582B000AF78605C
S2144023D07868034B984700BF0837BD4680BD00BFAE
S2144023E0ED2A400080B500AF0920084B98470A20E8
S2144023F0064B98470B20054B98470C20034B9847B5
S2144024000D20024B984700BF80BD00BFC923400047
S21440241080B48DB000AF786039607B68FB623B6803
S214402420BB62FB6A7B627B6A5A09FB6A3B623B6A19
S21440243003F01F03012101FA03F3FA61BB61BB6A93
S2144024407B61FB693B613B6903F5001303F207734D
S2144024505B02FB607B6903F00803002B03D0FB683C
S214402460BA695A6602E0FB68BA691A667B6903F085
S2144024701003002B04D0FB68BA69C3F8942003E02D
S214402480FB68BA69C3F890207B6903F02003002BF1
S21440249003D0FB68BA691A6502E0FB68BA695A65F8
S2144024A07B6903F0C003002B03D0FB68BA691A624D
S2144024B002E0FB68BA695A627B6903F08003002B2E
S2144024C004D0FB68BA69C3F8842003E0FB68BA69A5
S2144024D0C3F880207B6903F00103002B06D0FB681D
S2144024E01A6FBB691A43FB681A6706E0FB681A6FE7
S2144024F0BB69DB431A40FB681A677B6903F002033B
S214402500002B06D0FB685A6FBB691A43FB685A67B4
S21440251006E0FB685A6FBB69DB431A40FB685A67A4
S21440252000BF3437BD465DF8047B704780B48DB03D
S21440253000AF78600B46FB707B68FB62FB7887F8E1
S2144025402B30FB6A7B627B6A3B623B6A5B09FB61C2
S214402550FB6903F5001303F207735B02BB6197F850
S2144025602B30012B09D1FB6A7B617B6903F01F038B
S21440257001229A40BB691A610CE097F82B30002B79
S21440258008D1FB6A3B613B6903F01F0301229A4076
S214402590BB695A61FB6AFB60FB6803F01F030122BC
S2144025A09A40BB69C3F8A02000BF3437BD465DF8EB
S2144025B0047B704780B48BB000AF78600B46FB70EE
S2144025C07B687B62FB7887F823307B6AFB61FB691C
S2144025D0BB61BB695B097B617B6903F5001303F252
S2144025E007735B023B6197F82330002B09D07B6A68
S2144025F0FB60FB6803F01F0301229A403B691A63A5
S21440260008E07B6ABB60BB6803F01F0301229A4068
S2144026103B695A6300BF2C37BD465DF8047B704764
S21440262080B48DB000AF78600B46FB707B68FB6271
S214402630FB7887F82B30FB6A7B627B6A5A09FB6A19
S2144026403B623B6A03F01F03012101FA03F3FA6180
S214402650BB6197F82B30FB75FB693B613B6903F523
S214402660001303F207735B02FB60FB7D013B032B09
S2144026702ED801A252F823F0AD264000BF264000D7
S214402680892640009B264000FB68BA69C3F8C420F0
S214402690FB68BA69C3F8D0201FE0FB68BA69C3F884
S2144026A0C420FB68BA69C3F8D42016E0FB68BA6950
S2144026B0C3F8C020FB68BA69C3F8D0200DE0FB68B9
S2144026C0BA69C3F8C020FB68BA69C3F8D42004E0EE
S2144026D0FB68BA69C3F8B42003E0FB68BA69C3F87C
S2144026E0B02000BF3437BD465DF8047B704700BF5E
S2144026F080B500AF0D4B4FF400425A600C4B9847E4
S214402700012176200B4B9847012176200A4B9847AB
S21440271000210220074B984788210220074B984704
S21440272002210220064B984700BF80BD50180E403D
S214402730E52340002D254000B525400011244000EB
S2144027402126400080B483B000AF78607B68DB6CA5
S21440275018460C37BD465DF8047B704780B483B09E
S21440276000AF78607B689B6C18460C37BD465DF8BA
S214402770047B704780B584B000AF78603960786875
S2144027802C4B9847F86078682B4B98470246FB6876
S2144027901340FB60FB68002B3CD00023BB6034E05A
S2144027A0264ABB681B0113441A683B689A4226D1E6
S2144027B0224ABB681B01134404331A68FB68134063
S2144027C0002B1CD01D4ABB681B0113440C331B68EE
S2144027D01A49BA6812010A4410681849BA681201C0
S2144027E00A440432126811469847144ABB681B01D3
S2144027F0134404331B68DB43FA681340FB60BB6832
S2144028000133BB60BB68062B03D8FB68002BC7D1DF
S21440281000E000BF0A4B1B68002B07D0094B1B6823
S214402820002B03D0074B1B687868984700BF1037CB
S214402830BD4680BD452740005D2740009865002086
S21440284044A700200866002080B500AF0921024852
S214402850024B984700BF80BD000E0E4075274000D3
S21440286080B500AF0A210248024B984700BF80BDA2
S21440287000100E407527400080B500AF0B2102487F
S214402880024B984700BF80BD00120E40752740009F
S21440289080B500AF0C210248024B984700BF80BD70
S2144028A000140E407527400080B500AF0D21024849
S2144028B0024B984700BF80BD00160E40752740006B
S2144028C080B485B000AF78601D491D4B1B6B23F06C
S2144028D070027B6813430B634FF40063FB6007E0B2
S2144028E0FB68002B01D1012323E0FB68013BFB6022
S2144028F0134B9B6E03F00803002BF1D0104A104B8D
S2144029001B6B23F0030343F0020313634FF400638F
S214402910FB6007E0FB68002B01D1012309E0FB6860
S214402920013BFB60064B9B6E03F00803002BF1D087
S214402930002318461437BD465DF8047B704700BF39
S21440294000040E4080B483B000AF78607B68012BF3
S21440295007D1084A074B9B6843F0254343F480134E
S2144029609360044B044A1A6000BF0C37BD465DF8BE
S214402970047B704710180E40080000A580B400AFD6
S214402980094B5B6903F08003002B07D0074B9B6E17
S21440299003F08003002B01D0012300E000231846FB
S2144029A0BD465DF8047B704710180E4000040E408C
S2144029B080B483B000AF7860184A184B1B6A43F463
S2144029C05C1343F00803136200BF144B9B6E03F482
S2144029D00033002BF9D01149104B1B6A23F45C13CB
S2144029E023F070037A68134343F45C130B6200BF12
S2144029F00A4B9B6E03F40033002BF9D0074A074B73
S214402A001B6A23F09B7323F4803343F45C131362F6
S214402A1000BF0C37BD465DF8047B704700040E408F
S214402A2080B483B000AF786039607B68002B08D0F4
S214402A301649164B1B6A164A1A40164B13430B622E
S214402A401EE01249114B1B6A23F45C1323F0030368
S214402A503A68120292B2134343F45C1343F0010304
S214402A600B6200BF094B9B6E03F00103002BF9D0AD
S214402A70064A064B1B6A43F09B7343F4803313624B
S214402A8000BF0C37BD465DF8047B704700040E401F
S214402A90FCFFC8FE0200370180B400AF044B9B6EBB
S214402AA003F480331846BD465DF8047B704700BF8C
S214402AB000040E4080B400AF044B4FF000529A62C0
S214402AC000BFBD465DF8047B704700BF00040E4063
S214402AD080B400AF044B9B6E03F002031846BD461D
S214402AE05DF8047B704700BF00040E4080B483B09E
S214402AF000AF78607B682F2B01D901232FE07B68DD
S214402B001F2B13D8194B9A6901217B6801FA03F3EE
S214402B101A4001217B6801FA03F39A421ED0134AF9
S214402B2001217B6801FA03F3136117E07B68203BC1
S214402B307B600E4BD3F8082101217B6801FA03F332
S214402B401A4001217B6801FA03F39A4206D0074AED
S214402B5001217B6801FA03F3C2F8003100231846CE
S214402B600C37BD465DF8047B704700BF00040E403E
S214402B7080B483B000AF78607B682F2B01D90123E7
S214402B802FE07B681F2B13D8194B9A6901217B686D
S214402B9001FA03F31A4001217B6801FA03F39A42D3
S214402BA01ED1134A01217B6801FA03F3536117E0F3
S214402BB07B68203B7B600E4BD3F8082101217B6865
S214402BC001FA03F31A4001217B6801FA03F39A42A3
S214402BD006D1074A01217B6801FA03F3C2F80431A3
S214402BE0002318460C37BD465DF8047B704700BF8F
S214402BF000040E4080B483B000AF7860054A7B681E
S214402C001B0203F47063936300BF0C37BD465DF848
S214402C10047B704700040E4080B400AF034B802214
S214402C201A6000BFBD465DF8047B704700040E4046
S214402C3080B483B000AF78607B68C3F312037B60D8
S214402C400549054B1A6F7B6813430B6700BF0C376B
S214402C50BD465DF8047B704700040E4080B483B0E8
S214402C6000AF7860044A7B68136000BF0C37BD46EF
S214402C705DF8047B704700BFC400002080B483B07A
S214402C8000AF224B1B6F7B607B6823F4C0037B60E6
S214402C901F4B1B687A6813437B601C4A7B6813672C
S214402CA01A4A1A4B1B6A43F45C1343F0040313623C
S214402CB000BF164B9B6E03F00803002BF9D0002391
S214402CC07B6003E000BF7B6801337B607B68B3F5C5
S214402CD0FA7FF7D300BF0D4B1B6A03F00803002BA7
S214402CE0F9D00A4B1B6F7B607B6823F4C0037B6084
S214402CF07B6843F480037B60044A7B68136700BFAD
S214402D000C37BD465DF8047B704700BF00040E409C
S214402D10C400002090B599B000AF78607B68013B56
S214402D20042B00F2AD8101A252F823F0412D400061
S214402D30412D4000612D4000612D40005F30400035
S214402D40764A764B1B6923F004031361744B0122C9
S214402D501A70BFF35F8F62B6BFF34F8F30BF8FE1FD
S214402D607B68032B03D100206E4B984703E04FF45B
S214402D7000106C4B984772B6BFF35F8F684B0022CB
S214402D801A70694B01221A707B68042B0CBF012312
S214402D900023DAB207F11C033B6407F11803FB6318
S214402DA007F11403BB6307F110037B6307F10C03C1
S214402DB03B63134687F82F305C4B1B6ABB625B4B0A
S214402DC01B6B7B625A4B1B683B623B6C002B02D0F2
S214402DD03B6CBA6A1A60FB6B002B03D0534B9A6A63
S214402DE0FB6B1A60BB6B002B02D0BB6B00221A60D9
S214402DF07B6B002B02D07B6B7A6A1A603B6B002B96
S214402E0002D03B6B3A6A1A60484ABB6A43F45C138A
S214402E1043F0080313627B6A03F00303012B0ED9C9
S214402E207B6A23F0030343F001037B623F4A7B6ADD
S214402E3013633E4B9B6E03F00803002BF9D07B6A6E
S214402E4003F07003002B0CD07B6A23F070037B6288
S214402E50364A7B6A1363354B9B6E03F00803002BA0
S214402E60F9D0344B9847314B9B6E03F40033002B1C
S214402E70F9D02E4A2D4B1B6A23F09B7323F48033E4
S214402E8043F45C131362294B9B6E03F48033002B90
S214402E90F9D0274A3B6A23F47063136097F82F30C3
S214402EA0002B09D0214A214B1B6A23F45C1323F0E4
S214402EB0010343F45C131362194B01221A70BFF3EB
S214402EC05F8F62B61C4B984772B6BFF35F8F144B4A
S214402ED000221A70FC69B86979693A69FB68FC6532
S214402EE0B86579653A65FB640023BB64FB6D03F007
S214402EF00203002B26D00D490C4B1B6A0F4A1A4082
S214402F000F4B13430B62094A084B1B6A23F45C13AE
S214402F1023F0780343F45C1313624EE000ED00E0C8
S214402F20C20000205D2C40000C66002000040E40CD
S214402F30000A0E40B52A40007D2C4000FCFFC8FE2B
S214402F4002003701FB6D03F00103002B35D04E4BDA
S214402F501B6A03F00103002B11D14B4A4A4B1B6AF4
S214402F6023F45C1323F0030343F45C1343F00103A0
S214402F701362454B9B6E03F00103002BF9D0424B86
S214402F801B6A03F08073002B0DD13F4A3E4B1B6AF1
S214402F9043F09B7343F4803313623B4B9B6E03F4C6
S214402FA08033002BF9D0384A374B1B6A23F45C1326
S214402FB023F0780343F45C131362BA6D334B13402B
S214402FC0002B08D0304ABB6D43F000539362BB6C75
S214402FD043F00203BB643B6D03F00303022B05D1B1
S214402FE0294B9B6E03F00203002BF9D0264B1B6B3C
S214402FF07B6425497B6C23F070023B6D03F07003C5
S21440300013430B63204B9B6E03F00803002BF9D051
S2144030101F4AFB6C13601C4A3B6D13631A4B9B6E36
S21440302003F00803002BF9D0174B9A6EBB6C134085
S214403030002BF9D0174B00221A70174B1B68002B39
S21440304005D0154B1B689847134B00221A60134B4C
S21440305001221A70BFF35F8F62B600BF10E0104ABD
S2144030600F4B1B6943F0040313610E4B0E4A1A6064
S2144030700A4B01221A70BFF35F8F62B630BF00BFA3
S21440308000BF6437BD4690BD00040E400000FF07F9
S214403090000A0E400C66002010660020C200002089
S2144030A000ED00E010180E40040000A580B400AF0C
S2144030B0094B1B78DBB2002B14BF01230023DBB285
S2144030C083F00103DBB203F00103DBB21846BD46D2
S2144030D05DF8047B704700BF0C66002080B483B068
S2144030E000AF0346FB7197F90730002B0BDB09490D
S2144030F097F907305B09FA7902F01F02012000FABF
S21440310002F241F8232000BF0C37BD465DF8047B31
S214403110704700BF00E100E080B483B000AF0346D4
S2144031203960FB7197F90730002B0ADB0D4997F998
S21440313007303A68D2B21201D2B20B4483F8002369
S2144031400AE00949FB7903F00F03043B3A68D2B220
S2144031501201D2B20B441A7600BF0C37BD465DF85A
S214403160047B704700E100E000ED00E080B483B0EF
S21440317000AFEFF310837B607B68002B0CBF01230E
S2144031800023DBB23B6072B6BFF35F8F044B002276
S2144031901A703B6818460C37BD465DF8047B70478E
S2144031A0C200002080B483B000AF78607B68002BFC
S2144031B014BF01230023DBB218460C37BD465DF82A
S2144031C0047B704780B582B000AF78607868074B64
S2144031D098470346002B05D0054B01221A70BFF3D3
S2144031E05F8F62B600BF0837BD4680BDA531400040
S2144031F0C200002080B584B000AF0346FB71FB7967
S2144032000A4AD35CFF2B00D1FEE7094B9847F8608B
S214403210FB79064AD25C0132D1B2044AD154F868EE
S214403220044B984700BF1037BD4680BD3CA70020E2
S2144032306D314000C531400080B584B000AF0346D4
S214403240FB71FB790A4AD35C002B00D1FEE7094BA1
S2144032509847F860FB79064AD25C013AD1B2044AF4
S214403260D154F868044B984700BF1037BD4680BD20
S2144032703CA700206D314000C531400080B582B08B
S21440328000AF0346FB71FB7983F00103DBB2002BF2
S21440329006D00D4B1B78002B02D002200B4B9847D4
S2144032A0FB79002B09D0084B1B7883F00103DBB277
S2144032B0002B02D00220064B9847034AFB79137036
S2144032C000BF0837BD4680BD146600203932400036
S2144032D0F531400080B500AF664B9847034683F013
S2144032E00103DBB2002B0CD0634BDB6903F4807325
S2144032F0002B06D172B6BFF35F8F604B00221A7068
S214403300B7E023205E4B98475B4B9B6903F4006312
S214403310002B0ED0584BDB6903F40063002B08D01B
S214403320554B4FF400621A62564B9847564B984797
S2144033309DE0564B98470346002B40F09580544BF3
S21440334098470346002B40F091804B4B9B6903F413
S2144033500053002B05D0484BDB6903F40053002B89
S21440336017D1454B9B6903F40073002B05D0424BA5
S214403370DB6903F40073002B0BD13F4B9B6903F4CE
S2144033808063002B1FD03C4BDB6903F48063002B2B
S21440339019D0394B4FF418521A62374B4FF4185223
S2144033A05A6101203B4B98473B4B9847324B4FF472
S2144033B080721A62304B4FF480721A612E4B4FF473
S2144033C000621A6153E02C4B9B6903F48073002B18
S2144033D022D0294BDB6903F48073002B1CD0264B8C
S2144033E04FF480721A62244B4FF480725A61224B1B
S2144033F04FF400521A61204B4FF400721A611E4B74
S2144034004FF480621A612320244B98470020214BBA
S2144034109847234B98472AE0174BDB6903F48053C1
S214403420002B25D0144B4FF480521A621D4B984700
S2144034301D4B9847104A104B5B6823F001035360BE
S2144034400D4A0D4B5B6823F002035360174B9847B9
S214403450174B9847084B4FF480721A61064B4FF44F
S21440346000621A6100BF02E000BF00E000BF00BF7C
S21440347000BF80BDAD30400000400840C200002084
S214403480ED2A4000BD1A4000C96D4000414740004B
S214403490454E40007D324000B96D4000712B4000E3
S2144034A0A96D400095484000691A4000913F400091
S2144034B03940400080B582B000AF124B98477860E4
S2144034C02320114B9847114B984705212320104B3A
S2144034D0984723200F4B98470F4B98474FF4802030
S2144034E00E4B98470E4B00221A7000200D4B984703
S2144034F00D4B984778680D4B984700BF0837BD4638
S21440350080BD00BF6D314000ED2A4000650640009A
S21440351019314000DD304000E9474000312C400082
S21440352014660020F531400031354000C53140007A
S21440353080B582B000AF184B984778600120174B93
S21440354098472320164B9847164A164B5B6F23F432
S21440355080735367134A134B5B6F43F40073536790
S214403560104B4FF480721A610E4B4FF400521A61A2
S2144035700C4B4FF400721A610A4B4FF480621A618A
S214403580084B4FF400621A617868074B984700BFB3
S2144035900837BD4680BD00BF6D3140007D324000DB
S2144035A0ED2A400000400840C531400080B483B05A
S2144035B000AF0346FB71154A144B5B6823F00103CA
S2144035C05360124A114B9B6823F480739360FB79D7
S2144035D0002B15D00D490D4B9B6823F07F02FB79DD
S2144035E003F07F0313438B60084A084B9B6843F401
S2144035F080739360054A054B5B6843F00103536054
S21440360000BF0C37BD465DF8047B7047004008405D
S21440361080B400AF094B5B6803F00103002B06D073
S214403620064B9B68DBB203F07F03DBB200E000236F
S2144036301846BD465DF8047B704700BF0040084012
S21440364080B400AF054B1B689BB2C3F30A039BB222
S2144036501846BD465DF8047B704700BF00400840F2
S21440366080B483B000AF78600B467B80054A7B68A9
S2144036709360044A7B88938100BF0C37BD465DF853
S214403680047B704748A7002080B487B000AF03464D
S214403690FB710B46BB711346BB80FB7903F080037E
S2144036A0002B14BF01230023FB75BB7903F00303F3
S2144036B0012B0CBF01230023BB75FB7903F00F03DE
S2144036C0FB71FB79022B01D90023CAE0684AFB79DB
S2144036D00C3352F8233003F40043002B01D0002370
S2144036E0BFE0BB7D002B07D0FB79002B02D0FB79D7
S2144036F0032B01D10023B4E0BA88FB79042B02D017
S214403700FB79052B02D14FF4007300E040239A4228
S21440371001DD0023A5E0FB795A1E13469B001344A7
S2144037209B00544A13443B61BB88C3F3090399B2D8
S2144037303A69138A61F3090313823A69537C6FF33B
S214403740C71353743A69537C6FF345135374FB7D28
S214403750002B04D03A69537C6FF383035374444977
S214403760434B9A6AFB79012000FA03F313438B62BA
S21440377000BF3F4B9A6AFB79012101FA03F31340DD
S214403780002BF6D03A493A4B9A6AFB79012000FA68
S21440379003F3DB4313408B62354AFB790C3352F814
S2144037A02330FB60FB6843F04F03FB60FB6823F469
S2144037B0074323F08003FB60FB7D002B0DD0BB79D5
S2144037C01B0203F4407343F4806303F4E06343F462
S2144037D0004248F28073134008E0BB791B0203F4B2
S2144037E0407343F4004248F280731340FA68134330
S2144037F0FB601F49FB79FA680C3341F8232000BF71
S2144038001B4AFB790C3352F82320FB7D002B0AD051
S214403810BB791B0203F4407343F4806303F4E06314
S21440382043F4004305E0BB791B0203F4407343F4C2
S21440383000431A40FB7D002B0AD0BB791B0203F4E1
S214403840407343F4806303F4E06343F4004305E0CD
S214403850BB791B0203F4407343F400439A42CFD132
S214403860012318461C37BD465DF8047B704700BFF1
S214403870004008401C66002080B584B000AF034678
S214403880FB71FB7903F00F03FB73FB7B022B22D803
S214403890134AFB7B0C3352F82330BB60BB6843F0C3
S2144038A04F03BB60BB6823F40043BB600C49FB7B03
S2144038B0BA680C3341F8232000BF094AFB7B0C331F
S2144038C052F8233003F40043002BF6D1FB79184618
S2144038D0044B984700E000BF1037BD4680BD00BF90
S2144038E000400840D948400080B485B000AF034649
S2144038F0FB71FB7903F00F03FB73FB7B5A1E1346E9
S2144039009B0013449B00134A1344BB60FB7B022B73
S21440391001D9002317E0BB685B7C03F02003DBB2D1
S214403920002B0AD10C4AFB7903F00F030C3352F8F4
S214403930233003F02803002B01D0012300E00023AE
S21440394003F00103DBB218461437BD465DF8047B2E
S214403950704700BF1C6600200040084080B586B017
S21440396000AF0346FB71FB7903F08003002B14BFC6
S21440397001230023FB75FB7903F00F03BB75BB7D6A
S2144039805A1E13469B0013449B002D4A13443B612A
S214403990BB7D022B01D900234DE02A4B9847F860A7
S2144039A0FB7D002B1FD0284ABB7D0C3352F82330BA
S2144039B003F01003002B06D13B695B7CC3F3810305
S2144039C0DBB2012B0FDD3A69537C43F0200353747E
S2144039D01D4ABB7D012101FA03F31361F8681B4BB6
S2144039E09847012327E0184ABB7D0C3352F8233012
S2144039F0BB60BB6843F04F03BB60BB6843F020032B
S214403A00BB601149BB7DBA680C3341F8232000BF28
S214403A100D4ABB7D0C3352F8233003F02003202B95
S214403A20F6D1094ABB7D012101FA03F31361F86818
S214403A30064B9847012318461837BD4680BD00BF41
S214403A401C6600206D31400000400840C5314000F3
S214403A5080B586B000AF0346FB71FB7903F00F03D9
S214403A60FB71FB79022B01D900237FE0FB795A1EBC
S214403A7013469B0013449B003E4A13447B617A697D
S214403A80537C6FF3451353743B4AFB790C3352F81F
S214403A90233003F02003002B67D0374AFB790C33E2
S214403AA052F823303B613B6943F04F033B613B692F
S214403AB023F020033B613049FB793A690C3341F8E7
S214403AC0232000BF2C4AFB790C3352F8233003F0F6
S214403AD02003002BF6D12849274B9A6AFB79012010
S214403AE000FA03F313438B6200BF234B9A6AFB79B9
S214403AF0012101FA03F31340002BF6D01E491E4B5A
S214403B009A6AFB79012000FA03F3DB4313408B6289
S214403B10194AFB790C3352F82330FB60FB6843F0BC
S214403B204F03FB60FB6823F00803FB601249FB79F8
S214403B30FA680C3341F8232000BF0F4AFB790C3358
S214403B4052F8233003F00803002BF6D17B695B7CE8
S214403B5003F01003DBB2002B07D07A69537C6FF377
S214403B60041353747B691B6898470123184618371B
S214403B70BD4680BD1C6600200040084080B588B029
S214403B8000AFBA607B600346FB730B46BB73FB7BA0
S214403B9003F08003002B14BF01230023FB77FB7B3D
S214403BA003F00F03FB73FB7B022B01D9002383E05A
S214403BB0FB7B5A1E13469B0013449B00404A13440B
S214403BC0BB61404AFB7B0C3352F8233003F400437E
S214403BD0002B0FD0BB695B7C03F02003DBB2002BCD
S214403BE008D1384AFB7B0C3352F8233003F02003CD
S214403BF0002B01D000235FE0334B98477861BB69C8
S214403C005B7C03F01003DBB2002B04D078692F4BAB
S214403C109847002350E0BA69537C43F0100353742E
S214403C2078692A4B9847BB69BA685A60BB697A6814
S214403C309A60BB690022DA60BB69BA6A1A60BB7BCD
S214403C40002B02D17B68002B01D1012300E000232A
S214403C50DBB203F00103D9B2BA69537C61F3861331
S214403C605374BA69537C6FF3C7135374164B984713
S214403C707861144AFB7B012101FA03F31361FB7F51
S214403C80002B15D00F4AFB7B0C3352F8233003F041
S214403C901103002B0CD1FB7B012118460C4B984797
S214403CA00346002B04D0FB7B00211846084B984760
S214403CB07869064B9847012318462037BD4680BD95
S214403CC01C660020004008406D314000C531400071
S214403CD0314C400080B588B000AF0346FB71FB799D
S214403CE003F08003002B14BF01230023FB77FB79EE
S214403CF003F00F03FB71FB79022B00F2E980764B51
S214403D009847B861754AFB79012101FA03F353617C
S214403D10B869734B9847FB7F002B00F0AE806F4A24
S214403D20FB790C3352F8233003F01003002B73D08A
S214403D30FB79002B52D0FB79032B4FD0674AFB7997
S214403D400C3352F823307B617B6943F04F037B6131
S214403D507B6923F010037B616049FB797A690C33F9
S214403D6041F8232000BF5D4AFB790C3352F82330DC
S214403D7003F01003002BF6D100BF584AFB790C33F2
S214403D8052F8233003F01003002BF6D1534AFB7948
S214403D900C3352F823303B613B6943F04F033B61A1
S214403DA03B6943F010033B614C49FB793A690C335D
S214403DB041F8232000BF494AFB790C3352F82330A0
S214403DC003F01003102BF6D100BF444AFB790C33A6
S214403DD052F8233003F01003002BF6D03F4AFB790D
S214403DE00C3352F82330FB60FB6843F04F03FB6014
S214403DF0FB6823F01003FB603849FB79FA680C3304
S214403E0041F8232000BF354AFB790C3352F8233063
S214403E1003F01003002BF6D1304AFB790C3352F8EE
S214403E202330BB60BB6843F04F03BB60BB6823F0E6
S214403E300103BB602949FB79BA680C3341F823205B
S214403E4000BF264AFB790C3352F8233003F00103B7
S214403E50002BF6D1FB795A1E224913469B00134489
S214403E609B000B4403F1100253786FF383035370A7
S214403E700CE0FB7918461C4B9847184AFB790C33E4
S214403E8052F8233003F04203002BF2D11349134B70
S214403E909A6AFB79012000FA03F313438B6200BF52
S214403EA00E4B9A6AFB79012101FA03F31340002B6B
S214403EB0F6D00A49094B9A6AFB79012000FA03F3C7
S214403EC0DB4313408B62FB791846084B984700E06B
S214403ED000BF2037BD4680BD6D31400000400840E1
S214403EE0C53140001C66002089494000D948400042
S214403EF080B584B000AF03463960FB71FB7903F0B0
S214403F000F03FB71FB79022B01D9002338E0FB79C4
S214403F105A1E13469B0013449B001B4A1344FB60E7
S214403F201A4AFB790C3352F8233003F40043002B33
S214403F3001D1002324E0FB685B7C03F01003DBB276
S214403F40002B01D000231BE0104AFB790C3352F8BB
S214403F50233003F02003002B06D1FB685B7C03F084
S214403F602003DBB2002B08D0FA68537C43F01003E2
S214403F705374FB683A681A6001E03B68984701232F
S214403F8018461037BD4680BD1C66002000400840DD
S214403F9080B584B000AF254A244B9B6843F48073B9
S214403FA09360224A214B9B6823F07F0393601F4B0C
S214403FB01B6BBB60BB6843F04F03BB60BB6823F41E
S214403FC0074323F08003BB60BB6843F40043BB60F9
S214403FD0164ABB68136300BF144B1B6B03F40043C5
S214403FE0B3F5004FF8D1114B1B6B7B607B6843F0F9
S214403FF04F037B607B6843F400437B600B4A7B68DF
S214404000136300BF094B1B6B03F40043B3F5004F2B
S214404010F8D1074B9847F860044B01221A61F868BC
S214404020044B984700BF1037BD4680BD004008404F
S2144040306D314000C531400080B400AF084B0022CF
S2144040401A61074B00225A61054B00229A81054BA4
S21440405000221A7000BFBD465DF8047B704700BF63
S21440406048A700201566002080B586B000AF634B99
S2144040701B78002B03D0624B9847624B9847624BA5
S2144040801B6B1B0CC3F30A03082B17D05E4B1B6B32
S2144040903B613B6943F04F033B613B6923F00403BC
S2144040A03B61594A3B69136300BF574B1B6B03F098
S2144040B00403002BF9D1554B98479BE00023FB7532
S2144040C009E0FB7D524A13444F4A126DD2B21A7031
S2144040D0FB7D0133FB75FB7D072BF2D94C4B5A8891
S2144040E04B4B5A804A4B9A88494B9A80484BDA88C1
S2144040F0474BDA80474B9847034683F00103DBB2D1
S214404100002B17D0404B1B6BFB60FB6843F04F0304
S214404110FB60FB6823F00403FB603B4AFB681363C9
S21440412000BF394B1B6B03F00403002BF9D1374B10
S21440413098475FE0364B1B785BB2002B35DA324B44
S2144041401B6BBB60BB6843F04F03BB60BB6843F070
S2144041508003BB602C4ABB68136300BF2A4B1B6BB3
S21440416003F08003802BF9D1274B1B6B7B607B6869
S21440417043F04F037B607B6823F004037B60224A56
S2144041807B68136300BF204B1B6B03F00403002BBC
S214404190F9D1214B00221A80204B00221A80174B5F
S2144041A002221A701E4B984724E0174B1B6B3B604D
S2144041B03B6843F04F033B603B6823F004033B609F
S2144041C0114A3B68136300BF0F4B1B6B03F004039D
S2144041D0002BF9D10E4BDB88002B02D1114B9847B0
S2144041E008E00D4B00221A800C4B00221A80034B2D
S2144041F001221A701837BD4680BD00BF15660020E4
S2144042002547400039404000004008407546400081
S21440421048A7002039234000166600201866002074
S21440422029424000C146400080B588B000AF714B7F
S2144042301B78032B19D1704B1B6B3B613B6943F0DA
S2144042404F033B613B6923F001033B616A4A3B698C
S214404250136300BF684B1B6B03F00103002BF9D1BF
S214404260664B9847664B9847C1E0664B9A89664BC3
S2144042701B88D31AFB83FB8B002B3CD1634B1A88DD
S214404280614B1B8813449AB2604B1A805D4BDA88A8
S2144042905E4B1B889A4203D05D4B1B78002B17D091
S2144042A05C4B9847544B1B6BFB60FB6843F04F03DB
S2144042B0FB60FB6823F00103FB604F4AFB68136317
S2144042C000BF4D4B1B6B03F00103002BF9D18EE072
S2144042D04C4B5B69002B0ED04A4B5B6998470346B4
S2144042E083F00103DBB2002B05D1474B00221A8036
S2144042F0444B9B89FB83FB8B3F2B05D94023FB8399
S214404300434B00221A7002E0414B01221A703D4B8B
S2144043109B683D4A12881344BB613F4B984778617F
S214404320354B1B6B03F00203002B1BD078693B4BCD
S2144043309847304B04221A702F4B1B6BBB60BB68F0
S21440434043F04F03BB60BB6823F00103BB602A4ABF
S214404350BB68136300BF284B1B6B03F00103002BA5
S214404360F9D144E000237B7708E02349BB695A1C17
S214404370BA611B780B657B7F01337B777B7F9BB273
S214404380FA8B9A42F1D8204B1A88FB8B13449AB288
S2144043901D4B1A80184B1B6B7B607B6843F04F03AA
S2144043A07B607B6843F010037B60134A7B68136333
S2144043B000BF114B1B6B03F01003102BF9D10E4BB3
S2144043C01B6B3B603B6843F04F033B603B6823F00E
S2144043D001033B60084A3B68136300BF064B1B6BF8
S2144043E003F00103002BF9D178690C4B984720372E
S2144043F0BD4680BD15660020004008402547400069
S2144044003940400048A70020186600201666002065
S214404410446600200D4740006D314000C5314000E5
S21440442080B588B000AF8A4B1B78012B24D0884BD0
S2144044301B78022B03D0864B1B78042B02D1854B6E
S214404440984701E0844B9847844B1B6B7B617B69A4
S21440445043F04F037B617B6923F002037B617F4A15
S2144044607B69136300BF7D4B1B6B03F00203002B7D
S214404470F9D17B4B9847E7E0784B1B6B1B0C9BB204
S214404480C3F30A03BB83774B9B891A46764B1B883C
S2144044901946BB8B0B449A4205DA724B9A89724B8B
S2144044A01B88D31ABB836F4B9B686F4A1288134492
S2144044B0BB610023FB7709E0BB695A1CBA61674AB7
S2144044C0126DD2B21A70FB7F0133FB77FB7F9BB233
S2144044D0BA8B9A42F0D8644B1A88BB8B13449AB274
S2144044E0614B1A80BB8B402B0AD15E4BDB881A4649
S2144044F05E4B1B8819465C4B1B880B449A4240DC3B
S214404500594B1A88574B9A81564B5B69002B20D0E3
S214404510544B5B699847034683F00103DBB2002B9C
S21440452017D04D4B98474D4B1B6B3B613B6943F057
S2144045304F033B613B6923F002033B61474A3B69BB
S214404540136300BF454B1B6B03F00203002BF9D1EE
S2144045507AE0424B1B6BFB60FB6843F04F03FB600B
S214404560FB6823F00203FB603C4AFB68136300BF12
S2144045703A4B1B6B03F00203002BF9D13C4B984798
S21440458062E0384B9A89384B1B889A4247D1354B64
S2144045905B69002B17D1304B9847304B1B6BBB6089
S2144045A0BB6843F04F03BB60BB6823F00203BB60AD
S2144045B02A4ABB68136300BF284B1B6B03F00203F9
S2144045C0002BF9D140E0274B5B699847034683F0C0
S2144045D00103DBB2002B17D01F4B98471F4B1B6BBA
S2144045E07B607B6843F04F037B607B6823F002036D
S2144045F07B601A4A7B68136300BF184B1B6B03F043
S2144046000203002BF9D11FE0184B1A88164B1B8863
S21440461013449AB2154B1A80134B00221A800F4B44
S2144046201B6B3B603B6843F04F033B603B6823F0AB
S21440463002033B60094A3B68136300BF074B1B6B92
S21440464003F00203002BF9D12037BD4680BD00BFE2
S214404650156600202547400075464000004008404B
S2144046603940400048A70020186600201666002003
S214404670C146400080B483B000AF0F4B05221A708D
S2144046800E4B1B6B7B607B6843F04F037B607B6805
S21440469043F020037B60094A7B68136300BF074BE7
S2144046A01B6B03F02003202BF9D100BF0C37BD460F
S2144046B05DF8047B704700BF156600200040084048
S2144046C080B483B000AF0F4B03221A700E4B1B6BA7
S2144046D07B607B6843F04F037B607B6843F010034E
S2144046E07B60094A7B68136300BF074B1B6B03F074
S2144046F01003102BF9D100BF0C37BD465DF8047B84
S214404700704700BF156600200040084080B400AFE8
S214404710034B04221A7000BFBD465DF8047B704709
S2144047201566002080B500AF044B1B69002B02D0F5
S214404730024B1B69984700BF80BD00BF48A70020BA
S21440474080B582B000AF244BDB6903F00103002B39
S21440475001D100233BE0204B1B6B03F00403002BEE
S21440476003D01E4B9847012331E01B4B1B6B03F0D5
S2144047700103002B03D01A4B9847012327E0164B22
S2144047801B6B03F00203002B03D0164B9847012304
S2144047901DE0114B1B6B03F00803002B16D00E4B8D
S2144047A01B6B7B607B6843F04F037B607B6823F02A
S2144047B008037B60084A7B68136300BF064B1B6B8D
S2144047C003F00803002BF9D1012300E0002318462C
S2144047D00837BD4680BD00BF0040084069404000E5
S2144047E0294240002144400080B483B000AF0023FB
S2144047F0FB7143E0FA79264913469B0013449B001D
S2144048000B4403F1100253786FF383035370FA7925
S2144048101F4913469B0013449B000B4403F11002B0
S21440482053786FF304135370FA79194913469B0073
S21440483013449B000B4403F1100253786FF3451367
S2144048405370FA79124913469B0013449B000B445D
S21440485003F1100253786FF386135370FA790C49BC
S21440486013469B0013449B000B4403F110025378FD
S2144048706FF3C7135370FB790133FB71FB79012B40
S214404880B8D900BF0C37BD465DF8047B704700BF03
S2144048901C66002080B582B000AF0023FB7110E09C
S2144048A0FA7913469B0013449B00094A9818FB79F3
S2144048B00133DBB21A460121064B9847FB79013398
S2144048C0FB71FB79012BEBD900BF0837BD4680BD95
S2144048D01C6600201549400080B582B000AF0346F4
S2144048E0FB71FB7903F00F03FB71FB795A1E1346ED
S2144048F09B0013449B00054A1344FA79012118464D
S214404900034B984700BF0837BD4680BD1C66002055
S2144049101549400080B584B000AFF860B9601346D2
S214404920FB71FB685B7C03F01003DBB2002B23D0EB
S214404930FA68537C6FF304135374FB681B68002BB0
S2144049401CD0104AFB790C3352F8233003F48063B2
S214404950002B03D0FB7963F07F03FB71FB681B6879
S214404960BA68012A0CBF01220022D2B21046FA6869
S2144049709168FA79984702E000BF00E000BF103720
S214404980BD4680BD0040084080B487B000AF0346B7
S214404990FB71FB795A1E13469B0013449B00454A05
S2144049A013447B61444AFB790C3352F8233003F0BE
S2144049B00203002B14BF01230023FB743E4AFB79FD
S2144049C00C3352F8233003F04003002B14BF01236E
S2144049D00023BB74FB7C002B02D0BB7C002B0ED18B
S2144049E0FB7C002B05D07A69537C6FF383035374AA
S2144049F005E07A69537C012161F3830353747B6934
S214404A005B7C03F00C03DBB2002B2AD12A4AFB79ED
S214404A100C3352F82330FB60FB6843F04F03FB60D7
S214404A20FB6823F00203FB602349FB79FA680C33EA
S214404A3041F8232000BF204AFB790C3352F823303C
S214404A4003F00203002BF6D1FB79002B2CD0FB7928
S214404A50032B29D07A69537C012161F38303537475
S214404A6022E0154AFB790C3352F82330BB60BB6812
S214404A7043F04F03BB60BB6823F04003BB600E4966
S214404A80FB79BA680C3341F8232000BF0A4AFB7909
S214404A900C3352F8233003F04003002BF6D17A69EA
S214404AA0537C6FF38303537400BF1C37BD465DF8D9
S214404AB0047B70471C6600200040084080B489B0E4
S214404AC000AF0346FB71FB795A1E13469B00134406
S214404AD09B00554A13443B613B695A683B69DB6817
S214404AE01344FB613B699A683B69DB68D31AFB60F9
S214404AF03B691B8AC3F309039BB2BB610023FB756A
S214404B00FA68BB699A4203D2FB68BB610123FB7516
S214404B103B69DA68BB691A443B69DA605AE0434845
S214404B20FA79FB69591CF9611B78194602F114039E
S214404B3040F823103D48FA79FB69591CF9611B7807
S214404B40194602F1140340F823103848FA79FB69F5
S214404B50591CF9611B78194602F1140340F82310DA
S214404B603248FA79FB69591CF9611B78194602F1FB
S214404B70140340F823102D48FA79FB69591CF96153
S214404B801B78194602F1140340F823102748FA7997
S214404B90FB69591CF9611B78194602F1140340F869
S214404BA023102248FA79FB69591CF9611B7819468B
S214404BB002F1140340F823101C48FA79FB69591C8B
S214404BC0F9611B78194602F1140340F82310BB69BB
S214404BD0083BBB61BB69072BA1D80DE01348FA79A7
S214404BE0FB69591CF9611B78194602F1140340F819
S214404BF02310BB69013BBB61BB69002BEED13B690F
S214404C005B7CC3F38103DBB2013303F00303D9B209
S214404C103A69537C61F383035374FB7D184624370B
S214404C20BD465DF8047B70471C6600200040084087
S214404C3080B586B000AF03460A46FB711346BB718B
S214404C40FB795A1E13469B0013449B00364A134476
S214404C507B617B695B7CC3F38103DBB21A46FB79DD
S214404C60002B02D0FB79032B01D1012300E0022365
S214404C709A4201DB012352E07B69DA687B699B68D4
S214404C809A4208D37B695B7C03F04003DBB2002B7F
S214404C9001D1002343E0FB791846244B984703464E
S214404CA0FB74BB79002B1DD0214AFB790C3352F89C
S214404CB02330FB60FB6843F04F03FB60FB6843F028
S214404CC01003FB601A49FB79FA680C3341F823203D
S214404CD000BF174AFB790C3352F8233003F0100319
S214404CE0102BF6D1FB7C002B04D07A69537C6FF3F3
S214404CF0861353747B69DA687B699B689A420DD346
S214404D007B695B7C03F04003DBB2002B06D17A69FB
S214404D10537C43F080035374002300E0012318467D
S214404D201837BD4680BD00BF1C660020BD4A400007
S214404D300040084080B58AB000AF0346FB71FB795F
S214404D405A1E13469B0013449B003A4A13447B6109
S214404D5000237B627B699A687B69DB68D31A3B6178
S214404D607B691B8AC3F309039BB2FB607B695A6865
S214404D707B69DB681344FB610023FB762E4AFB7994
S214404D800C3352F823301B0CC3F30A037B627A6A57
S214404D90FB689A4234BF01230023FB727B6A002BD8
S214404DA021D07A6A3B699A4203D33B697B620123EE
S214404DB0FB767B69DA687B6A1A447B69DA60002393
S214404DC03B620CE0FB695A1CFA611B49FA791432C3
S214404DD051F82220D2B21A703B6A01333B623A6ADB
S214404DE07B6A9A42EED3FB791846144B9847FB7E73
S214404DF0002B02D1FB7A002B18D00F4AFB790C33DC
S214404E0052F8233003F02003002B0FD10A4AFB79D7
S214404E10012101FA03F353617B69DA687B699A6082
S214404E20FB791A4600217869054B984700BF28371A
S214404E30BD4680BD1C6600200040084089494000B1
S214404E401549400080B58EB000AF012387F8373053
S214404E5060E29E4B9A6997F83730012101FA03F3D6
S214404E601340002B00F0508297F837305A1E1346F6
S214404E709B0013449B00964A13443B63934A97F81F
S214404E8037300C3352F8233003F04203002B06D061
S214404E9097F8373018468F4B9847012340E28B4AA5
S214404EA097F837300C3352F8233003F00103002BC9
S214404EB000F0EC813B6B5B7CC3F38103DBB20333D6
S214404EC003F00303D9B23A6B537C61F38303537404
S214404ED03B6B5B7C03F02003DBB2002B00F093803F
S214404EE03B6B5B7C03F00C03DBB2002B42D0774A73
S214404EF097F837300C3352F82330BB62BB6A43F026
S214404F004F03BB62BB6A43F01003BB626F4997F81E
S214404F103730BA6A0C3341F8232000BF6B4A97F803
S214404F2037300C3352F8233003F01003102BF5D1F2
S214404F30664A97F837300C3352F823307B627B6AE8
S214404F4043F04F037B627B6A23F001037B625F4939
S214404F5097F837307A6A0C3341F8232000BF5B4A13
S214404F6097F837300C3352F8233003F00103002B08
S214404F70F5D146E0554A97F837300C3352F823308F
S214404F803B623B6A43F04F033B623B6A23F00103BC
S214404F903B624E4997F837303A6A0C3341F8232043
S214404FA000BF4A4A97F837300C3352F8233003F0A4
S214404FB00103002BF5D1454A97F837300C3352F8A9
S214404FC02330FB61FB6943F04F03FB61FB6943F011
S214404FD02003FB613D4997F83730FA690C3341F8B6
S214404FE0232000BF394A97F837300C3352F8233025
S214404FF003F02003202BF5D13A6B537C6FF3451317
S214405000537401238CE13B6B5B7C23F07F03DBB264
S214405010002B16D03A6B537C6FF3C71353743B6B1D
S214405020DA683B6B9A60294A97F83730012101FAD3
S21440503003F3536197F837301A460021386B264BF6
S21440504098473B6BDA683B6B9B689A424AD33B6B0C
S2144050505B7C03F04003DBB2002B43D13B6B5B7CB5
S21440506003F00C03DBB2002B3CD11C4B9847F86294
S214405070164A97F83730012101FA03F35361F86A6C
S214405080174B9847114A97F837300C3352F823306D
S214405090BB61BB6943F04F03BB61BB6923F00103AF
S2144050A0BB610A4997F83730BA690C3341F8232078
S2144050B000BF064A97F837300C3352F8233003F0D7
S2144050C00103002BF5D101232AE100BF0040084030
S2144050D01C660020354D4000154940006D314000AB
S2144050E0C531400097F83730002B53D097F837300B
S2144050F0032B4FD03B6B5B7CC3F38103DBB2002BAF
S21440510048DD894A97F837300C3352F823307B61B4
S2144051107B6943F04F037B617B6943F010037B61FF
S214405120814997F837307A690C3341F8232000BF1D
S2144051307D4A97F837300C3352F8233003F010038B
S214405140102BF5D1784A97F837300C3352F8233085
S2144051503B613B6943F04F033B613B6923F00103EE
S2144051603B61714997F837303A690C3341F8232050
S21440517000BF6D4A97F837300C3352F8233003F0AF
S2144051800103002BF5D197F8373000211846674BBE
S214405190984779E097F83730002B4ED097F837305D
S2144051A0032B4AD097F83730012118465F4B984773
S2144051B0034683F00103DBB2002B16D03A6B537CD8
S2144051C06FF3C71353743B6BDA683B6B9A60564A6F
S2144051D097F83730012101FA03F3536197F83730D7
S2144051E01A460021386B524B98474F4A97F837304B
S2144051F00C3352F82330FB60FB6843F04F03FB60F0
S214405200FB6823F00103FB60474997F83730FA689C
S2144052100C3341F8232000BF434A97F837300C330D
S21440522052F8233003F00103002BF5D197F83730BE
S214405230002118463D4B984726E097F83730012125
S21440524018463A4B9847384A97F837300C3352F856
S2144052502330BB60BB6843F04F03BB60BB6823F0A2
S2144052600103BB60304997F83730BA680C3341F8D1
S214405270232000BF2C4A97F837300C3352F823309F
S21440528003F00103002BF5D1012349E0264A97F8A5
S21440529037300C3352F8233003F00803002B34D059
S2144052A0214A97F837300C3352F823307B607B68BE
S2144052B043F04F037B607B6823F008037B601A490A
S2144052C097F837307A680C3341F8232000BF164AE7
S2144052D097F837300C3352F8233003F00803002B8E
S2144052E0F5D1114A97F837300C3352F8233003F48F
S2144052F0E063B3F5807F05D00B4A97F837300C3320
S21440530052F8233001230BE000BF97F837300133C3
S21440531087F8373097F83730022B7FF69AAD002360
S21440532018463837BD4680BD00400840314C4000E6
S2144053301549400080B400AFFEE7000080B483B05B
S21440534000AFEFF310837B607B68002B0CBF01231C
S2144053500023DBB23B6072B6BFF35F8F044B002284
S2144053601A703B6818460C37BD465DF8047B70479C
S214405370C200002080B483B000AF78607B68002B0A
S21440538014BF01230023DBB218460C37BD465DF838
S214405390047B704780B582B000AF78607868074B72
S2144053A098470346002B05D0054B01221A70BFF3E1
S2144053B05F8F62B600BF0837BD4680BD755340005C
S2144053C0C200002080B584B000AF1E4BFB601E4B71
S2144053D0BB60FA68BB689A420CD007E0BB681A1DEF
S2144053E0BA60FA68111DF96012681A60BB68174AFD
S2144053F09342F3D3164BBB6004E0BB681A1DBA60F9
S21440540000221A60BB68134A9342F6D3124BFB60E5
S214405410124AFB6823F07F039360114B98477860ED
S214405420104A104B1B6843F470031360BFF34F8F52
S214405430BFF36F8F78680C4B98470C4B98470C4BD4
S2144054409847FEE70C72400000000020FC04002055
S214405450FC04002084A700200000400000ED00E08F
S2144054603D53400088ED00E095534000416E4000BB
S214405470496C400080B400AF524B1B6B03F00303F3
S214405480012B14D0012B02D3022B38D07AE04E4B9E
S2144054905B6903F08003002B04D04C4B4FF4004272
S2144054A01A606FE0494B4FF4FA421A606AE0454B87
S2144054B01B6A03F08073002B03D0444B444A1A60A7
S2144054C060E0424B434A1A603E4B1B6A03F070034F
S2144054D0102B04D0202B08D0002B0ED00EE03B4BD8
S2144054E01B685B00394A136008E0384B1A6813465D
S2144054F05B001344354A136000E000BF42E0314B86
S2144055001B6A03F08073002B03D0304B304A1A607E
S2144055101CE02E4B2F4A1A602A4B1B6A03F070037E
S214405520102B04D0202B08D0002B0ED00EE0274B9B
S2144055301B685B00254A136008E0244B1A68134634
S2144055405B001344214A136000E000BF1D4B1B6BF9
S21440555003F00303022B14D11A4B9B6A1B0CC3F3B4
S2144055600A030133194A126802FB03F3174A136011
S214405570144B9B6ADBB2154A1268B2FBF3F3134A2C
S214405580136000BF0F4B1B6B03F07003702B08D1EA
S2144055900E4B1B68104AA2FB03235B080B4A1360A2
S2144055A00AE0084B1B6B1B0903F00703074A126807
S2144055B022FA03F3054A136000BFBD465DF8047B3C
S2144055C0704700BF00040E4010180E40C800002070
S2144055D0001BB70000093D00ABAAAAAA80B483B05E
S2144055E000AF78607B68194A934204D8184B4FF056
S2144055F080621A6023E07B68164A934203D8144BB5
S214405600154A1A601BE07B68144A934203D8104B35
S214405610134A1A6013E07B68124A934203D80C4B35
S214405620114A1A600BE07B68104A934204D8084B34
S2144056304FF004221A6002E0054B0D4A1A6000BF84
S2144056400C37BD465DF8047B704700BFFF2C310128
S214405650000A0E40FF59620200010004FF869303D1
S21440566000020004FFB3C40400030004FFE0F50595
S2144056700005000480B483B000AF78607B6803F117
S21440568008027B685A607B684FF0FF329A607B68FE
S21440569003F108027B68DA607B6803F108027B68E6
S2144056A01A617B6800221A6000BF0C37BD465DF861
S2144056B0047B704780B483B000AF78607B6800227C
S2144056C01A6100BF0C37BD465DF8047B704780B456
S2144056D085B000AF786039607B685B68FB603B688C
S2144056E0FA685A60FB689A683B689A60FB689B68F1
S2144056F03A685A60FB683A689A603B687A681A610A
S2144057007B681B685A1C7B681A6000BF1437BD460E
S2144057105DF8047B704780B485B000AF7860396030
S2144057203B681B68BB60BB68B3F1FF3F03D17B6837
S2144057301B69FB600CE07B680833FB6002E0FB689B
S2144057405B68FB60FB685B681A68BB689A42F6D980
S214405750FB685A683B685A603B685B683A689A6080
S2144057603B68FA689A60FB683A685A603B687A68B1
S2144057701A617B681B685A1C7B681A6000BF143726
S214405780BD465DF8047B704780B485B000AF786056
S2144057907B681B69FB607B685B687A6892689A6086
S2144057A07B689B687A6852685A60FB685A687B6870
S2144057B09A4203D17B689A68FB685A607B680022ED
S2144057C01A61FB681B685A1EFB681A60FB681B68F8
S2144057D018461437BD465DF8047B704780B485B0E4
S2144057E000AFF860B9607A60FB68043BFB60FB681A
S2144057F04FF080721A60FB68043BFB60BB6823F086
S2144058000102FB681A60FB68043BFB60094AFB68C0
S2144058101A60FB68143BFB607A68FB681A60FB689A
S214405820203BFB60FB6818461437BD465DF8047B9A
S214405830704700BF3958400080B483B000AF0023A3
S2144058403B604FF0500383F31188BFF36F8FBFF375
S2144058504F8F7B6000BF3B68002BFCD000BF0C37EF
S214405860BD465DF8047B7047000000000000000065
S214405870074B19680868B0E8F00F80F30988BFF353
S2144058806F8F4FF0000080F311884EF00D0E70477A
S21440589050A6002000BF00BF06480068006880F39E
S2144058A0088862B661B6BFF34F8FBFF36F8F00DFD5
S2144058B000BF00BF08ED00E080B500AF0C4A0C4BBF
S2144058C01B6843F470031360094A094B1B6843F096
